{
  "contractName": "TodoList",
  "abi": [
    {
      "anonymous": false,
      "inputs": [
        {
          "indexed": false,
          "internalType": "string",
          "name": "content",
          "type": "string"
        }
      ],
      "name": "Add",
      "type": "event"
    },
    {
      "anonymous": false,
      "inputs": [
        {
          "indexed": false,
          "internalType": "uint256",
          "name": "index",
          "type": "uint256"
        }
      ],
      "name": "Removed",
      "type": "event"
    },
    {
      "anonymous": false,
      "inputs": [
        {
          "indexed": false,
          "internalType": "uint256",
          "name": "index",
          "type": "uint256"
        }
      ],
      "name": "Toggled",
      "type": "event"
    },
    {
      "inputs": [],
      "name": "taskCount",
      "outputs": [
        {
          "internalType": "uint256",
          "name": "",
          "type": "uint256"
        }
      ],
      "stateMutability": "view",
      "type": "function",
      "constant": true
    },
    {
      "inputs": [
        {
          "internalType": "uint256",
          "name": "",
          "type": "uint256"
        }
      ],
      "name": "tasks",
      "outputs": [
        {
          "internalType": "uint256",
          "name": "id",
          "type": "uint256"
        },
        {
          "internalType": "string",
          "name": "content",
          "type": "string"
        },
        {
          "internalType": "bool",
          "name": "completed",
          "type": "bool"
        }
      ],
      "stateMutability": "view",
      "type": "function",
      "constant": true
    },
    {
      "inputs": [
        {
          "internalType": "string",
          "name": "_content",
          "type": "string"
        }
      ],
      "name": "addTask",
      "outputs": [],
      "stateMutability": "nonpayable",
      "type": "function"
    },
    {
      "inputs": [
        {
          "internalType": "uint256",
          "name": "index",
          "type": "uint256"
        }
      ],
      "name": "toggleTask",
      "outputs": [],
      "stateMutability": "nonpayable",
      "type": "function"
    },
    {
      "inputs": [
        {
          "internalType": "uint256",
          "name": "index",
          "type": "uint256"
        }
      ],
      "name": "removeTask",
      "outputs": [],
      "stateMutability": "nonpayable",
      "type": "function"
    }
  ],
  "bytecode": "0x608060405234801561001057600080fd5b506107c3806100206000396000f3fe608060405234801561001057600080fd5b50600436106100575760003560e01c8063613137a41461005c578063672385621461008a5780638d97767214610145578063b6cb58a5146101fc578063c30841171461021a575b600080fd5b6100886004803603602081101561007257600080fd5b8101908080359060200190929190505050610248565b005b610143600480360360208110156100a057600080fd5b81019080803590602001906401000000008111156100bd57600080fd5b8201836020820111156100cf57600080fd5b803590602001918460018302840111640100000000831117156100f157600080fd5b91908080601f016020809104026020016040519081016040528093929190818152602001838380828437600081840152601f19601f8201169050808301925050505050505091929192905050506102d4565b005b6101716004803603602081101561015b57600080fd5b8101908080359060200190929190505050610402565b60405180848152602001806020018315158152602001828103825284818151815260200191508051906020019080838360005b838110156101bf5780820151818401526020810190506101a4565b50505050905090810190601f1680156101ec5780820380516001836020036101000a031916815260200191505b5094505050505060405180910390f35b6102046104d1565b6040518082815260200191505060405180910390f35b6102466004803603602081101561023057600080fd5b81019080803590602001909291905050506104d7565b005b6001600082815260200190815260200160002060020160009054906101000a900460ff16156001600083815260200190815260200160002060020160006101000a81548160ff0219169083151502179055507ffdc5f176d804a0b34efedf3c9e277a571d40d439fb7a619485f1ca28afff1188816040518082815260200191505060405180910390a150565b6040518060600160405280600054815260200182815260200160001515815250600160008054815260200190815260200160002060008201518160000155602082015181600101908051906020019061032e929190610605565b5060408201518160020160006101000a81548160ff02191690831515021790555090505060008081548092919060010191905055507f064152b2fa6f01772475b1014574903d1456018f92fd36930a82c7fbfce9a40d816040518080602001828103825283818151815260200191508051906020019080838360005b838110156103c55780820151818401526020810190506103aa565b50505050905090810190601f1680156103f25780820380516001836020036101000a031916815260200191505b509250505060405180910390a150565b6001602052806000526040600020600091509050806000015490806001018054600181600116156101000203166002900480601f0160208091040260200160405190810160405280929190818152602001828054600181600116156101000203166002900480156104b45780601f10610489576101008083540402835291602001916104b4565b820191906000526020600020905b81548152906001019060200180831161049757829003601f168201915b5050505050908060020160009054906101000a900460ff16905083565b60005481565b60005481106104e557600080fd5b600160006001600054038152602001908152602001600020600160008381526020019081526020016000206000820154816000015560018201816001019080546001816001161561010002031660029004610541929190610693565b506002820160009054906101000a900460ff168160020160006101000a81548160ff0219169083151502179055509050506001600060016000540381526020019081526020016000206000808201600090556001820160006105a39190610728565b6002820160006101000a81549060ff021916905550506000808154809291906001900391905055507ffab782eee98387fe0d957b2964e6da22a6918f525952ccad107ae25db263cc11816040518082815260200191505060405180910390a150565b828054600181600116156101000203166002900490600052602060002090601f01602090048101928261063b5760008555610682565b82601f1061065457805160ff1916838001178555610682565b82800160010185558215610682579182015b82811115610681578251825591602001919060010190610666565b5b50905061068f9190610770565b5090565b828054600181600116156101000203166002900490600052602060002090601f0160209004810192826106c95760008555610717565b82601f106106da5780548555610717565b8280016001018555821561071757600052602060002091601f016020900482015b828111156107165782548255916001019190600101906106fb565b5b5090506107249190610770565b5090565b50805460018160011615610100020316600290046000825580601f1061074e575061076d565b601f01602090049060005260206000209081019061076c9190610770565b5b50565b5b80821115610789576000816000905550600101610771565b509056fea2646970667358221220098913536d50c35dd9b1d997514145c9db9778faff1df0cfb9e332f0b376237764736f6c63430007060033",
  "immutableReferences": {},
  "source": "// SPDX-License-Identifier: MIT\npragma solidity ^0.7.4;\n\ncontract TodoList {\n uint public taskCount;\n event Add(string content);\n event Removed(uint256 index);\n event Toggled(uint256 index);\n\n  struct Task {\n    uint id;\n    string content;\n    bool completed;\n  }\n  mapping(uint => Task) public tasks;\n\n  function addTask(string memory _content) public {\n    tasks[taskCount] = Task(taskCount, _content, false);\n    taskCount ++;\n    emit Add(_content);\n  }\n  function toggleTask(uint256 index) public {\n    tasks[index].completed = !tasks[index].completed;\n    emit Toggled(index);\n  }\n  function removeTask(uint256 index) public {\n      require(index < taskCount);\n      tasks[index] = tasks[taskCount-1];\n      delete tasks[taskCount-1];\n      taskCount--;\n      emit Removed(index);\n  }\n}\n",
  "sourcePath": "/Users/sandyinstructor/Documents/ðŸ‘©ðŸ½â€ðŸ’»BLOCKCHAIN/Alyra/truffle-box/truffle-todolist/contracts/TodoList.sol",
  "compiler": {
    "name": "solc",
    "version": "0.7.6+commit.7338295f.Emscripten.clang"
  },
  "schemaVersion": "3.3.4",
  "updatedAt": "2021-03-20T21:44:14.538Z",
  "networkType": "ethereum",
  "devdoc": {
    "kind": "dev",
    "methods": {},
    "version": 1
  },
  "userdoc": {
    "kind": "user",
    "methods": {},
    "version": 1
  }
}