{
  "contractName": "TodoList",
  "abi": [
    {
      "anonymous": false,
      "inputs": [
        {
          "indexed": false,
          "internalType": "string",
          "name": "content",
          "type": "string"
        }
      ],
      "name": "Add",
      "type": "event"
    },
    {
      "anonymous": false,
      "inputs": [
        {
          "indexed": false,
          "internalType": "uint256",
          "name": "index",
          "type": "uint256"
        }
      ],
      "name": "Removed",
      "type": "event"
    },
    {
      "anonymous": false,
      "inputs": [
        {
          "indexed": false,
          "internalType": "uint256",
          "name": "index",
          "type": "uint256"
        }
      ],
      "name": "Toggled",
      "type": "event"
    },
    {
      "inputs": [],
      "name": "taskCount",
      "outputs": [
        {
          "internalType": "uint256",
          "name": "",
          "type": "uint256"
        }
      ],
      "stateMutability": "view",
      "type": "function",
      "constant": true
    },
    {
      "inputs": [
        {
          "internalType": "uint256",
          "name": "",
          "type": "uint256"
        }
      ],
      "name": "tasks",
      "outputs": [
        {
          "internalType": "uint256",
          "name": "id",
          "type": "uint256"
        },
        {
          "internalType": "string",
          "name": "content",
          "type": "string"
        },
        {
          "internalType": "bool",
          "name": "completed",
          "type": "bool"
        }
      ],
      "stateMutability": "view",
      "type": "function",
      "constant": true
    },
    {
      "inputs": [
        {
          "internalType": "string",
          "name": "_content",
          "type": "string"
        }
      ],
      "name": "addTask",
      "outputs": [],
      "stateMutability": "nonpayable",
      "type": "function"
    },
    {
      "inputs": [
        {
          "internalType": "uint256",
          "name": "index",
          "type": "uint256"
        },
        {
          "internalType": "bool",
          "name": "completed",
          "type": "bool"
        }
      ],
      "name": "toggleTask",
      "outputs": [],
      "stateMutability": "nonpayable",
      "type": "function"
    },
    {
      "inputs": [
        {
          "internalType": "uint256",
          "name": "index",
          "type": "uint256"
        }
      ],
      "name": "removeTask",
      "outputs": [],
      "stateMutability": "nonpayable",
      "type": "function"
    }
  ],
  "bytecode": "0x608060405234801561001057600080fd5b506107ac806100206000396000f3fe608060405234801561001057600080fd5b50600436106100575760003560e01c80634cad79171461005c57806367238562146100965780638d97767214610151578063b6cb58a514610208578063c308411714610226575b600080fd5b6100946004803603604081101561007257600080fd5b8101908080359060200190929190803515159060200190929190505050610254565b005b61014f600480360360208110156100ac57600080fd5b81019080803590602001906401000000008111156100c957600080fd5b8201836020820111156100db57600080fd5b803590602001918460018302840111640100000000831117156100fd57600080fd5b91908080601f016020809104026020016040519081016040528093929190818152602001838380828437600081840152601f19601f8201169050808301925050505050505091929192905050506102bd565b005b61017d6004803603602081101561016757600080fd5b81019080803590602001909291905050506103eb565b60405180848152602001806020018315158152602001828103825284818151815260200191508051906020019080838360005b838110156101cb5780820151818401526020810190506101b0565b50505050905090810190601f1680156101f85780820380516001836020036101000a031916815260200191505b5094505050505060405180910390f35b6102106104ba565b6040518082815260200191505060405180910390f35b6102526004803603602081101561023c57600080fd5b81019080803590602001909291905050506104c0565b005b806001600084815260200190815260200160002060020160006101000a81548160ff0219169083151502179055507ffdc5f176d804a0b34efedf3c9e277a571d40d439fb7a619485f1ca28afff1188826040518082815260200191505060405180910390a15050565b604051806060016040528060005481526020018281526020016000151581525060016000805481526020019081526020016000206000820151816000015560208201518160010190805190602001906103179291906105ee565b5060408201518160020160006101000a81548160ff02191690831515021790555090505060008081548092919060010191905055507f064152b2fa6f01772475b1014574903d1456018f92fd36930a82c7fbfce9a40d816040518080602001828103825283818151815260200191508051906020019080838360005b838110156103ae578082015181840152602081019050610393565b50505050905090810190601f1680156103db5780820380516001836020036101000a031916815260200191505b509250505060405180910390a150565b6001602052806000526040600020600091509050806000015490806001018054600181600116156101000203166002900480601f01602080910402602001604051908101604052809291908181526020018280546001816001161561010002031660029004801561049d5780601f106104725761010080835404028352916020019161049d565b820191906000526020600020905b81548152906001019060200180831161048057829003601f168201915b5050505050908060020160009054906101000a900460ff16905083565b60005481565b60005481106104ce57600080fd5b60016000600160005403815260200190815260200160002060016000838152602001908152602001600020600082015481600001556001820181600101908054600181600116156101000203166002900461052a92919061067c565b506002820160009054906101000a900460ff168160020160006101000a81548160ff02191690831515021790555090505060016000600160005403815260200190815260200160002060008082016000905560018201600061058c9190610711565b6002820160006101000a81549060ff021916905550506000808154809291906001900391905055507ffab782eee98387fe0d957b2964e6da22a6918f525952ccad107ae25db263cc11816040518082815260200191505060405180910390a150565b828054600181600116156101000203166002900490600052602060002090601f016020900481019282610624576000855561066b565b82601f1061063d57805160ff191683800117855561066b565b8280016001018555821561066b579182015b8281111561066a57825182559160200191906001019061064f565b5b5090506106789190610759565b5090565b828054600181600116156101000203166002900490600052602060002090601f0160209004810192826106b25760008555610700565b82601f106106c35780548555610700565b8280016001018555821561070057600052602060002091601f016020900482015b828111156106ff5782548255916001019190600101906106e4565b5b50905061070d9190610759565b5090565b50805460018160011615610100020316600290046000825580601f106107375750610756565b601f0160209004906000526020600020908101906107559190610759565b5b50565b5b8082111561077257600081600090555060010161075a565b509056fea264697066735822122031312d2b2929d816e3101bf2ffa8d08992529bc9bce30e0570d12c399436c8f164736f6c63430007060033",
  "immutableReferences": {},
  "source": "// SPDX-License-Identifier: MIT\npragma solidity ^0.7.4;\n\ncontract TodoList {\n uint public taskCount;\n event Add(string content);\n event Removed(uint256 index);\n event Toggled(uint256 index);\n\n  struct Task {\n    uint id;\n    string content;\n    bool completed;\n  }\n  mapping(uint => Task) public tasks;\n\n  function addTask(string memory _content) public {\n    tasks[taskCount] = Task(taskCount, _content, false);\n    taskCount ++;\n    emit Add(_content);\n  }\n  function toggleTask(uint256 index, bool completed) public {\n    tasks[index].completed = completed;\n    emit Toggled(index);\n  }\n  function removeTask(uint256 index) public {\n      require(index < taskCount);\n      tasks[index] = tasks[taskCount-1];\n      delete tasks[taskCount-1];\n      taskCount--;\n      emit Removed(index);\n  }\n}\n",
  "sourcePath": "/Users/sandyinstructor/Documents/ðŸ‘©ðŸ½â€ðŸ’»BLOCKCHAIN/Alyra/truffle-box/truffle-todolist/contracts/TodoList.sol",
  "compiler": {
    "name": "solc",
    "version": "0.7.6+commit.7338295f.Emscripten.clang"
  },
  "schemaVersion": "3.3.4",
  "updatedAt": "2021-03-21T18:39:25.599Z",
  "networkType": "ethereum",
  "devdoc": {
    "kind": "dev",
    "methods": {},
    "version": 1
  },
  "userdoc": {
    "kind": "user",
    "methods": {},
    "version": 1
  }
}