{
  "contractName": "TodoList",
  "abi": [
    {
      "inputs": [
        {
          "internalType": "uint256",
          "name": "",
          "type": "uint256"
        }
      ],
      "name": "tasks",
      "outputs": [
        {
          "internalType": "uint256",
          "name": "id",
          "type": "uint256"
        },
        {
          "internalType": "string",
          "name": "content",
          "type": "string"
        },
        {
          "internalType": "bool",
          "name": "completed",
          "type": "bool"
        }
      ],
      "stateMutability": "view",
      "type": "function",
      "constant": true
    },
    {
      "inputs": [
        {
          "internalType": "string",
          "name": "_content",
          "type": "string"
        }
      ],
      "name": "addTask",
      "outputs": [],
      "stateMutability": "nonpayable",
      "type": "function"
    },
    {
      "inputs": [
        {
          "internalType": "uint256",
          "name": "index",
          "type": "uint256"
        }
      ],
      "name": "toggleTask",
      "outputs": [],
      "stateMutability": "nonpayable",
      "type": "function"
    },
    {
      "inputs": [
        {
          "internalType": "uint256",
          "name": "index",
          "type": "uint256"
        }
      ],
      "name": "removeTask",
      "outputs": [],
      "stateMutability": "nonpayable",
      "type": "function"
    }
  ],
  "bytecode": "0x608060405234801561001057600080fd5b5061068a806100206000396000f3fe608060405234801561001057600080fd5b506004361061004c5760003560e01c8063613137a414610051578063672385621461007f5780638d9776721461013a578063c3084117146101f1575b600080fd5b61007d6004803603602081101561006757600080fd5b810190808035906020019092919050505061021f565b005b6101386004803603602081101561009557600080fd5b81019080803590602001906401000000008111156100b257600080fd5b8201836020820111156100c457600080fd5b803590602001918460018302840111640100000000831117156100e657600080fd5b91908080601f016020809104026020016040519081016040528093929190818152602001838380828437600081840152601f19601f820116905080830192505050505050509192919290505050610274565b005b6101666004803603602081101561015057600080fd5b8101908080359060200190929190505050610306565b60405180848152602001806020018315158152602001828103825284818151815260200191508051906020019080838360005b838110156101b4578082015181840152602081019050610199565b50505050905090810190601f1680156101e15780820380516001836020036101000a031916815260200191505b5094505050505060405180910390f35b61021d6004803603602081101561020757600080fd5b81019080803590602001909291905050506103d5565b005b6001600082815260200190815260200160002060020160009054906101000a900460ff16156001600083815260200190815260200160002060020160006101000a81548160ff02191690831515021790555050565b604051806060016040528060005481526020018281526020016000151581525060016000805481526020019081526020016000206000820151816000015560208201518160010190805190602001906102ce9291906104cc565b5060408201518160020160006101000a81548160ff021916908315150217905550905050600080815480929190600101919050555050565b6001602052806000526040600020600091509050806000015490806001018054600181600116156101000203166002900480601f0160208091040260200160405190810160405280929190818152602001828054600181600116156101000203166002900480156103b85780601f1061038d576101008083540402835291602001916103b8565b820191906000526020600020905b81548152906001019060200180831161039b57829003601f168201915b5050505050908060020160009054906101000a900460ff16905083565b60005481106103e357600080fd5b60016000600160005403815260200190815260200160002060016000838152602001908152602001600020600082015481600001556001820181600101908054600181600116156101000203166002900461043f92919061055a565b506002820160009054906101000a900460ff168160020160006101000a81548160ff0219169083151502179055509050506001600060016000540381526020019081526020016000206000808201600090556001820160006104a191906105ef565b6002820160006101000a81549060ff0219169055505060008081548092919060019003919050555050565b828054600181600116156101000203166002900490600052602060002090601f0160209004810192826105025760008555610549565b82601f1061051b57805160ff1916838001178555610549565b82800160010185558215610549579182015b8281111561054857825182559160200191906001019061052d565b5b5090506105569190610637565b5090565b828054600181600116156101000203166002900490600052602060002090601f01602090048101928261059057600085556105de565b82601f106105a157805485556105de565b828001600101855582156105de57600052602060002091601f016020900482015b828111156105dd5782548255916001019190600101906105c2565b5b5090506105eb9190610637565b5090565b50805460018160011615610100020316600290046000825580601f106106155750610634565b601f0160209004906000526020600020908101906106339190610637565b5b50565b5b80821115610650576000816000905550600101610638565b509056fea26469706673582212205cef87c115cfddcb70554e8a8b04af3024137a37706c5dbc9a754daaa3196b0764736f6c63430007060033",
  "immutableReferences": {},
  "source": "// SPDX-License-Identifier: MIT\npragma solidity ^0.7.4;\n\ncontract TodoList {\n uint taskCount;\n\n  struct Task {\n    uint id;\n    string content;\n    bool completed;\n  }\n  mapping(uint => Task) public tasks;\n\n  function addTask(string memory _content) public {\n    tasks[taskCount] = Task(taskCount, _content, false);\n    taskCount ++;\n  }\n  function toggleTask(uint256 index) public {\n    tasks[index].completed = !tasks[index].completed;\n  }\n  function removeTask(uint256 index) public {\n      require(index < taskCount);\n      tasks[index] = tasks[taskCount-1];\n      delete tasks[taskCount-1];\n      taskCount--;\n  }\n}\n",
  "sourcePath": "/Users/sandyinstructor/Documents/ðŸ‘©ðŸ½â€ðŸ’»BLOCKCHAIN/Alyra/truffle-box/truffle-todolist/contracts/TodoList.sol",
  "compiler": {
    "name": "solc",
    "version": "0.7.6+commit.7338295f.Emscripten.clang"
  },
  "schemaVersion": "3.3.4",
  "updatedAt": "2021-03-20T16:21:28.363Z",
  "networkType": "ethereum",
  "devdoc": {
    "kind": "dev",
    "methods": {},
    "version": 1
  },
  "userdoc": {
    "kind": "user",
    "methods": {},
    "version": 1
  }
}