{
  "contractName": "TodoList",
  "abi": [
    {
      "inputs": [],
      "name": "taskCount",
      "outputs": [
        {
          "internalType": "uint256",
          "name": "",
          "type": "uint256"
        }
      ],
      "stateMutability": "view",
      "type": "function",
      "constant": true
    },
    {
      "inputs": [
        {
          "internalType": "uint256",
          "name": "",
          "type": "uint256"
        }
      ],
      "name": "tasks",
      "outputs": [
        {
          "internalType": "uint256",
          "name": "id",
          "type": "uint256"
        },
        {
          "internalType": "string",
          "name": "content",
          "type": "string"
        },
        {
          "internalType": "bool",
          "name": "completed",
          "type": "bool"
        }
      ],
      "stateMutability": "view",
      "type": "function",
      "constant": true
    },
    {
      "inputs": [
        {
          "internalType": "string",
          "name": "_content",
          "type": "string"
        }
      ],
      "name": "addTask",
      "outputs": [],
      "stateMutability": "nonpayable",
      "type": "function"
    },
    {
      "inputs": [
        {
          "internalType": "uint256",
          "name": "index",
          "type": "uint256"
        }
      ],
      "name": "toggleTask",
      "outputs": [],
      "stateMutability": "nonpayable",
      "type": "function"
    },
    {
      "inputs": [
        {
          "internalType": "uint256",
          "name": "index",
          "type": "uint256"
        }
      ],
      "name": "removeTask",
      "outputs": [],
      "stateMutability": "nonpayable",
      "type": "function"
    }
  ],
  "bytecode": "0x608060405234801561001057600080fd5b506106b9806100206000396000f3fe608060405234801561001057600080fd5b50600436106100575760003560e01c8063613137a41461005c578063672385621461008a5780638d97767214610145578063b6cb58a5146101fc578063c30841171461021a575b600080fd5b6100886004803603602081101561007257600080fd5b8101908080359060200190929190505050610248565b005b610143600480360360208110156100a057600080fd5b81019080803590602001906401000000008111156100bd57600080fd5b8201836020820111156100cf57600080fd5b803590602001918460018302840111640100000000831117156100f157600080fd5b91908080601f016020809104026020016040519081016040528093929190818152602001838380828437600081840152601f19601f82011690508083019250505050505050919291929050505061029d565b005b6101716004803603602081101561015b57600080fd5b810190808035906020019092919050505061032f565b60405180848152602001806020018315158152602001828103825284818151815260200191508051906020019080838360005b838110156101bf5780820151818401526020810190506101a4565b50505050905090810190601f1680156101ec5780820380516001836020036101000a031916815260200191505b5094505050505060405180910390f35b6102046103fe565b6040518082815260200191505060405180910390f35b6102466004803603602081101561023057600080fd5b8101908080359060200190929190505050610404565b005b6001600082815260200190815260200160002060020160009054906101000a900460ff16156001600083815260200190815260200160002060020160006101000a81548160ff02191690831515021790555050565b604051806060016040528060005481526020018281526020016000151581525060016000805481526020019081526020016000206000820151816000015560208201518160010190805190602001906102f79291906104fb565b5060408201518160020160006101000a81548160ff021916908315150217905550905050600080815480929190600101919050555050565b6001602052806000526040600020600091509050806000015490806001018054600181600116156101000203166002900480601f0160208091040260200160405190810160405280929190818152602001828054600181600116156101000203166002900480156103e15780601f106103b6576101008083540402835291602001916103e1565b820191906000526020600020905b8154815290600101906020018083116103c457829003601f168201915b5050505050908060020160009054906101000a900460ff16905083565b60005481565b600054811061041257600080fd5b60016000600160005403815260200190815260200160002060016000838152602001908152602001600020600082015481600001556001820181600101908054600181600116156101000203166002900461046e929190610589565b506002820160009054906101000a900460ff168160020160006101000a81548160ff0219169083151502179055509050506001600060016000540381526020019081526020016000206000808201600090556001820160006104d0919061061e565b6002820160006101000a81549060ff0219169055505060008081548092919060019003919050555050565b828054600181600116156101000203166002900490600052602060002090601f0160209004810192826105315760008555610578565b82601f1061054a57805160ff1916838001178555610578565b82800160010185558215610578579182015b8281111561057757825182559160200191906001019061055c565b5b5090506105859190610666565b5090565b828054600181600116156101000203166002900490600052602060002090601f0160209004810192826105bf576000855561060d565b82601f106105d0578054855561060d565b8280016001018555821561060d57600052602060002091601f016020900482015b8281111561060c5782548255916001019190600101906105f1565b5b50905061061a9190610666565b5090565b50805460018160011615610100020316600290046000825580601f106106445750610663565b601f0160209004906000526020600020908101906106629190610666565b5b50565b5b8082111561067f576000816000905550600101610667565b509056fea2646970667358221220316d3f6f96b2d7be3ae2636b8ec2837a71ea3f87b65fa1ac959c5e6a5f2ba2d864736f6c63430007060033",
  "immutableReferences": {},
  "source": "// SPDX-License-Identifier: MIT\npragma solidity ^0.7.4;\n\ncontract TodoList {\n uint public taskCount;\n\n  struct Task {\n    uint id;\n    string content;\n    bool completed;\n  }\n  mapping(uint => Task) public tasks;\n\n  function addTask(string memory _content) public {\n    tasks[taskCount] = Task(taskCount, _content, false);\n    taskCount ++;\n  }\n  function toggleTask(uint256 index) public {\n    tasks[index].completed = !tasks[index].completed;\n  }\n  function removeTask(uint256 index) public {\n      require(index < taskCount);\n      tasks[index] = tasks[taskCount-1];\n      delete tasks[taskCount-1];\n      taskCount--;\n  }\n}\n",
  "sourcePath": "/Users/sandyinstructor/Documents/ðŸ‘©ðŸ½â€ðŸ’»BLOCKCHAIN/Alyra/truffle-box/truffle-todolist/contracts/TodoList.sol",
  "compiler": {
    "name": "solc",
    "version": "0.7.6+commit.7338295f.Emscripten.clang"
  },
  "schemaVersion": "3.3.4",
  "updatedAt": "2021-03-20T17:29:48.215Z",
  "networkType": "ethereum",
  "devdoc": {
    "kind": "dev",
    "methods": {},
    "version": 1
  },
  "userdoc": {
    "kind": "user",
    "methods": {},
    "version": 1
  }
}